:020000002528B1
:100008007E14803120007F08F5002100911D112801
:100018002000911D1128752120282100111C192864
:100028002000111C1928B02120282100911F202808
:100038002000911F2028C32175082000FF007E1092
:1000480009002628F601F701F801AC01AD013C30A2
:1000580084008030850070308600203087000030B2
:10006800FF00803000223822FB007E102000422949
:1000780000340134023403340434053406340734BC
:10008800083409340A340B340C340D340E340F346C
:10009800103411341234133414341534163417341C
:1000A800183419341A341B341C341D341E341F34CC
:1000B800203421342234233424342534263427347C
:1000C800283429342A342B342C342D342E342F342C
:1000D80030343134323433343434353436343734DC
:1000E800383439343A343B343C343D343E343F348C
:1000F800403441344234433444344534463447343C
:10010800483449344A344B344C344D344E344F34EB
:10011800503451345234533454345534563457349B
:10012800583459345A345B345C345D345E345F344B
:1001380060346134623463346434653466346734FB
:10014800683469346A346B346C346D346E346F34AB
:10015800703471347234733474347534763477345B
:10016800783479347A347B347C347D347E347F340B
:10017800F200F928F701F70A08007B08F000700878
:10018800F600E4287608703EF000F1012030F13DD9
:1001980070088600710887007B0881000130F00034
:1001A8007008F60780307602031CE428F601E4287C
:1001B8007708003A0319C628013A0319C128C62846
:1001C800F70108007608703E860087012030873DD9
:1001D8000108240091000130F0007008F607803013
:1001E8007602031C0800F60108007208003A031999
:1001F800BE28013A0319E628033A0319DC28013A14
:10020800031907290729080022008C0124008C0102
:10021800373021008C00213023008C0000308B1BEC
:1002280001302000A0008B1355303C008F00AA300D
:100238008F000F103D001108E039183891003C007C
:100248002008E0390138A0002108E0390238A1006F
:100258001308E039043893003D001208E0391938D2
:10026800920055303C008F00AA308F000F142000F8
:10027800201C40298B1708008B1308002D228B1790
:100288000B171F2220000C08A2002208A70020003C
:1002980027080C0603195C290C1E57291A08A40004
:1002A8001908A3005C291A08A6001908A5007329D3
:1002B8000C08A2002208A700A801A9012908803A71
:1002C800A20080302202031D6B2902302802031885
:1002D8004B2901302000A8070030A93D62293222AD
:1002E80025285530F3007308F400200091112400EC
:1002F8001108F3007308F400141D8929941A161FB5
:1003080087290330922901309229941A8D290030C7
:1003180092297408F3007308FB000230BC20240003
:1003280015160800403020009B00C0309C009A0140
:1003380099011A08FA001908F9001110210011147E
:10034800F3302000A0000130A100272220009113E3
:1003580021009117352208002000111021001110EA
:100368007A0820009A00790899002A082B040319B2
:1003780008002B088A002A080A008131080020009A
:100388009113210091130C2271082000AD00700810
:10039800AC000230F4007408F8000C08FE398C0038
:1003A800080020001B1DDF291B1021089A002008C7
:1003B80099001B14080021089A00200899000800D9
:1003C800240094012630950096019701FE30930091
:1003D8001030920020009111210091150800FF3083
:1003E8002000AC00FF30AD000330F0007008F800CA
:1003F8000C08FE398C000800FE0012001E000130B7
:10040800FE020030FF3B7F087E0403190034012AF6
:1004180020001A08F3001908F2007308F1007208A6
:10042800F00008006230320099009B019D01043001
:100438009F009E010800322200302000A000A10089
:10044800D5213522080020002108AB002008AA0089
:10045800080008211622E4219621080020001B101C
:0A046800080020001B1408005534A2
:020000040001F9
:08000E00ECFFF3FFFFFFFFFF11
:00000001FF
