:020000001C28BA
:100008007E14803120007F08FD002100911F1028F8
:100018002000911F1028F4202100911D172820008E
:10002800911D172842217D082000FF007E1009003D
:100038001D28F001F101F201F301F401F501F601C7
:1000480020308400003085001330B6217E10200057
:100058002D286720A7212000BD01BE013210B21053
:100068005428C920FF302000C107FF30C23D321894
:10007800B2183B284208803ABC0080303C02031D7D
:100088004728013041020318352820002D08B60002
:100098002C08B5009A2020003608C0003508BF009B
:1000A8000030AF000030AE000030AD000030AC00D2
:1000B8008030C1000030C200FF30F400FF30F5008E
:1000C800F201F3013B28063032009F0099019A01A2
:1000D8009B0164309D008B011F3021008C002300A0
:1000E8008C0124008C0125008C0126008C0127003E
:1000F8008C01CA2155303C008F00AA308F008F0137
:100108000130A0000230A100A20119303D00950085
:1001180004303C00930055308F00AA308F00013026
:100128008F00BC21AF2193211C21080006307006E6
:100138007104031DA528FF302000B500FF30B6006C
:100148000800FF3020003505B90000303605BA0038
:100158003A08B4003908B3005E2120003608B80018
:100168003508B7003808B700B801FF303705B900BF
:1001780000303805BA003A08B4003908B3005E21E7
:1001880020003210B501B601080020000C12210031
:100198000C1220000C16BA01BB013B08803AB900CA
:1001A80080303902031DDA2801303A020318EC289E
:1001B80001302000BA070030BB3D3B08803AB90047
:1001C80080303902031DEA2801303A02031CDC287A
:1001D80020000C1221000C16A7212000B2140800E0
:1001E800CE219D217808FC007708FB007B082000C1
:1001F800AC077C08AD3D0030AE3DAF3D75087C02D4
:10020800031D082974087B0203180E297C08F500D1
:100218007B08F4007C087302031D14297B08720212
:1002280003181A297C08F3007B08F200B2100800B2
:100238002400950194011508F039043895009701B8
:100248009516F001F1012000B401B5013508803A96
:10025800B30080303302031D3329063034020318FB
:10026800080020003435203E860087010030C03F5A
:10027800C13F0130B4070030B53D2A2924001108D8
:10028800F700F8017708F9007808FA00FF30F0075E
:10029800FF30F13D70087104031D55292000321408
:1002A80008007035FE3E203E8600870101082400C4
:1002B800910008007035203E860087012000330831
:1002C800C03F3408C13F0130F0070030F13D06302F
:1002D80070067104031D08007035FE3E203E86003E
:1002E80087010108240091000800031020001B1852
:1002F80003140030093DB500B6013508B7003608CB
:10030800B800D221200034089A0033089900371C1D
:10031800902920001B14080020001B100800CA2187
:10032800D821C1212100911711149115BC21C62192
:10033800080020001A08FA001908F9007A08F800DD
:100348007908F700080000302000B300B4007921D4
:10035800BC21D52108000C3020009B00C0309C0037
:100368001B140800640080010131890BB72900348F
:10037800C121210091178B170800200091139111BA
:10038800111008000B172100101608002100911306
:100398008B130800210091138B13080020001B10F9
:0C03A800080020001B1408000B130800C4
:020000040001F9
:08000E008CDFF1F7FFFFFFFF9B
:00000001FF
